{
  "_format": "hh-sol-artifact-1",
  "contractName": "WavePortal",
  "sourceName": "contracts/WavePortal.sol",
  "abi": [
    {
      "inputs": [],
      "stateMutability": "payable",
      "type": "constructor"
    },
    {
      "anonymous": false,
      "inputs": [
        {
          "indexed": true,
          "internalType": "address",
          "name": "from",
          "type": "address"
        },
        {
          "indexed": false,
          "internalType": "uint256",
          "name": "timestamp",
          "type": "uint256"
        },
        {
          "indexed": false,
          "internalType": "string",
          "name": "message",
          "type": "string"
        }
      ],
      "name": "NewWave",
      "type": "event"
    },
    {
      "inputs": [],
      "name": "getAllWaves",
      "outputs": [
        {
          "components": [
            {
              "internalType": "address",
              "name": "waver",
              "type": "address"
            },
            {
              "internalType": "string",
              "name": "message",
              "type": "string"
            },
            {
              "internalType": "uint256",
              "name": "timestamp",
              "type": "uint256"
            }
          ],
          "internalType": "struct WavePortal.Wave[]",
          "name": "",
          "type": "tuple[]"
        }
      ],
      "stateMutability": "view",
      "type": "function"
    },
    {
      "inputs": [],
      "name": "getNumOfUniqueWaves",
      "outputs": [
        {
          "internalType": "uint256",
          "name": "",
          "type": "uint256"
        }
      ],
      "stateMutability": "view",
      "type": "function"
    },
    {
      "inputs": [],
      "name": "getTotalWaves",
      "outputs": [
        {
          "internalType": "uint256",
          "name": "",
          "type": "uint256"
        }
      ],
      "stateMutability": "view",
      "type": "function"
    },
    {
      "inputs": [
        {
          "internalType": "address",
          "name": "account",
          "type": "address"
        }
      ],
      "name": "getTotalWavesFromAccount",
      "outputs": [
        {
          "internalType": "uint256",
          "name": "",
          "type": "uint256"
        }
      ],
      "stateMutability": "view",
      "type": "function"
    },
    {
      "inputs": [
        {
          "internalType": "address",
          "name": "",
          "type": "address"
        }
      ],
      "name": "lastWavedAt",
      "outputs": [
        {
          "internalType": "uint256",
          "name": "",
          "type": "uint256"
        }
      ],
      "stateMutability": "view",
      "type": "function"
    },
    {
      "inputs": [
        {
          "internalType": "string",
          "name": "_message",
          "type": "string"
        }
      ],
      "name": "wave",
      "outputs": [],
      "stateMutability": "nonpayable",
      "type": "function"
    }
  ],
  "bytecode": "0x608060405262000033604051806060016040528060218152602001620018f0602191396200005b60201b620008b61760201c565b60644442620000439190620001a8565b6200004f919062000245565b600381905550620002ec565b620000fb8160405160240162000072919062000168565b6040516020818303038152906040527f41304fac000000000000000000000000000000000000000000000000000000007bffffffffffffffffffffffffffffffffffffffffffffffffffffffff19166020820180517bffffffffffffffffffffffffffffffffffffffffffffffffffffffff8381831617835250505050620000fe60201b60201c565b50565b60008151905060006a636f6e736f6c652e6c6f679050602083016000808483855afa5050505050565b600062000134826200018c565b62000140818562000197565b9350620001528185602086016200020f565b6200015d81620002db565b840191505092915050565b6000602082019050818103600083015262000184818462000127565b905092915050565b600081519050919050565b600082825260208201905092915050565b6000620001b58262000205565b9150620001c28362000205565b9250827fffffffffffffffffffffffffffffffffffffffffffffffffffffffffffffffff03821115620001fa57620001f96200027d565b5b828201905092915050565b6000819050919050565b60005b838110156200022f57808201518184015260208101905062000212565b838111156200023f576000848401525b50505050565b6000620002528262000205565b91506200025f8362000205565b925082620002725762000271620002ac565b5b828206905092915050565b7f4e487b7100000000000000000000000000000000000000000000000000000000600052601160045260246000fd5b7f4e487b7100000000000000000000000000000000000000000000000000000000600052601260045260246000fd5b6000601f19601f8301169050919050565b6115f480620002fc6000396000f3fe608060405234801561001057600080fd5b50600436106100625760003560e01c8063449d46c014610067578063804eb94614610083578063816d82ee146100a15780639a2cdc08146100d1578063a42a4663146100ef578063bd43a9081461011f575b600080fd5b610081600480360381019061007c9190610d37565b61013d565b005b61008b6105ef565b6040516100989190611127565b60405180910390f35b6100bb60048036038101906100b69190610d0e565b61063a565b6040516100c89190611127565b60405180910390f35b6100d9610702565b6040516100e69190611127565b60405180910390f35b61010960048036038101906101049190610d0e565b61074d565b6040516101169190611127565b60405180910390f35b610127610765565b6040516101349190610fa0565b60405180910390f35b42601e600560003373ffffffffffffffffffffffffffffffffffffffff1673ffffffffffffffffffffffffffffffffffffffff1681526020019081526020016000205461018a9190611239565b106101ca576040517f08c379a00000000000000000000000000000000000000000000000000000000081526004016101c190611107565b60405180910390fd5b42600560003373ffffffffffffffffffffffffffffffffffffffff1673ffffffffffffffffffffffffffffffffffffffff1681526020019081526020016000208190555060016000808282546102209190611239565b925050819055506102676040518060400160405280601581526020017f25732077617665642c206d6573736167653a2025730000000000000000000000815250338361094f565b6000600260003373ffffffffffffffffffffffffffffffffffffffff1673ffffffffffffffffffffffffffffffffffffffff1681526020019081526020016000205414156102c857600160008154809291906102c290611370565b91905055505b600260003373ffffffffffffffffffffffffffffffffffffffff1673ffffffffffffffffffffffffffffffffffffffff168152602001908152602001600020600081548092919061031890611370565b9190505550600460405180606001604052803373ffffffffffffffffffffffffffffffffffffffff16815260200183815260200142815250908060018154018082558091505060019003906000526020600020906003020160009091909190915060008201518160000160006101000a81548173ffffffffffffffffffffffffffffffffffffffff021916908373ffffffffffffffffffffffffffffffffffffffff16021790555060208201518160010190805190602001906103dc929190610bee565b50604082015181600201555050606460035442446103fa9190611239565b6104049190611239565b61040e91906113b9565b6003819055506104556040518060400160405280601681526020017f52616e646f6d20232067656e6572617465643a202564000000000000000000008152506003546109ee565b6032600354101561059c5761049f6040518060400160405280600781526020017f257320776f6e210000000000000000000000000000000000000000000000000081525033610a8a565b6000655af3107a40009050478111156104ed576040517f08c379a00000000000000000000000000000000000000000000000000000000081526004016104e4906110c7565b60405180910390fd5b60003373ffffffffffffffffffffffffffffffffffffffff168260405161051390610f8b565b60006040518083038185875af1925050503d8060008114610550576040519150601f19603f3d011682016040523d82523d6000602084013e610555565b606091505b5050905080610599576040517f08c379a0000000000000000000000000000000000000000000000000000000008152600401610590906110e7565b60405180910390fd5b50505b3373ffffffffffffffffffffffffffffffffffffffff167f5f7e16dc676677766a70e9c5628aa6c54ddb8b6e5188e2ae1e1f17f1ffbea71642836040516105e4929190611142565b60405180910390a250565b60006106326040518060400160405280601e81526020017f5765206861766520256420746f74616c20756e697175652077617665732100008152506001546109ee565b600154905090565b60006106bb6040518060400160405280601f81526020017f5765206861766520256420746f74616c2077617665732066726f6d2025732100815250600260008573ffffffffffffffffffffffffffffffffffffffff1673ffffffffffffffffffffffffffffffffffffffff1681526020019081526020016000205484610b26565b600260008373ffffffffffffffffffffffffffffffffffffffff1673ffffffffffffffffffffffffffffffffffffffff168152602001908152602001600020549050919050565b60006107456040518060400160405280601781526020017f5765206861766520256420746f74616c207761766573210000000000000000008152506000546109ee565b600054905090565b60056020528060005260406000206000915090505481565b60606004805480602002602001604051908101604052809291908181526020016000905b828210156108ad57838290600052602060002090600302016040518060600160405290816000820160009054906101000a900473ffffffffffffffffffffffffffffffffffffffff1673ffffffffffffffffffffffffffffffffffffffff1673ffffffffffffffffffffffffffffffffffffffff1681526020016001820180546108129061130d565b80601f016020809104026020016040519081016040528092919081815260200182805461083e9061130d565b801561088b5780601f106108605761010080835404028352916020019161088b565b820191906000526020600020905b81548152906001019060200180831161086e57829003601f168201915b5050505050815260200160028201548152505081526020019060010190610789565b50505050905090565b61094c816040516024016108ca9190610fc2565b6040516020818303038152906040527f41304fac000000000000000000000000000000000000000000000000000000007bffffffffffffffffffffffffffffffffffffffffffffffffffffffff19166020820180517bffffffffffffffffffffffffffffffffffffffffffffffffffffffff8381831617835250505050610bc5565b50565b6109e983838360405160240161096793929190611014565b6040516020818303038152906040527fe0e9ad4f000000000000000000000000000000000000000000000000000000007bffffffffffffffffffffffffffffffffffffffffffffffffffffffff19166020820180517bffffffffffffffffffffffffffffffffffffffffffffffffffffffff8381831617835250505050610bc5565b505050565b610a868282604051602401610a04929190611059565b6040516020818303038152906040527f9710a9d0000000000000000000000000000000000000000000000000000000007bffffffffffffffffffffffffffffffffffffffffffffffffffffffff19166020820180517bffffffffffffffffffffffffffffffffffffffffffffffffffffffff8381831617835250505050610bc5565b5050565b610b228282604051602401610aa0929190610fe4565b6040516020818303038152906040527f319af333000000000000000000000000000000000000000000000000000000007bffffffffffffffffffffffffffffffffffffffffffffffffffffffff19166020820180517bffffffffffffffffffffffffffffffffffffffffffffffffffffffff8381831617835250505050610bc5565b5050565b610bc0838383604051602401610b3e93929190611089565b6040516020818303038152906040527fe3849f79000000000000000000000000000000000000000000000000000000007bffffffffffffffffffffffffffffffffffffffffffffffffffffffff19166020820180517bffffffffffffffffffffffffffffffffffffffffffffffffffffffff8381831617835250505050610bc5565b505050565b60008151905060006a636f6e736f6c652e6c6f679050602083016000808483855afa5050505050565b828054610bfa9061130d565b90600052602060002090601f016020900481019282610c1c5760008555610c63565b82601f10610c3557805160ff1916838001178555610c63565b82800160010185558215610c63579182015b82811115610c62578251825591602001919060010190610c47565b5b509050610c709190610c74565b5090565b5b80821115610c8d576000816000905550600101610c75565b5090565b6000610ca4610c9f84611197565b611172565b905082815260208101848484011115610cbc57600080fd5b610cc78482856112cb565b509392505050565b600081359050610cde816115a7565b92915050565b600082601f830112610cf557600080fd5b8135610d05848260208601610c91565b91505092915050565b600060208284031215610d2057600080fd5b6000610d2e84828501610ccf565b91505092915050565b600060208284031215610d4957600080fd5b600082013567ffffffffffffffff811115610d6357600080fd5b610d6f84828501610ce4565b91505092915050565b6000610d848383610f1d565b905092915050565b610d958161128f565b82525050565b610da48161128f565b82525050565b6000610db5826111d8565b610dbf81856111fb565b935083602082028501610dd1856111c8565b8060005b85811015610e0d5784840389528151610dee8582610d78565b9450610df9836111ee565b925060208a01995050600181019050610dd5565b50829750879550505050505092915050565b6000610e2a826111e3565b610e348185611217565b9350610e448185602086016112da565b610e4d816114a6565b840191505092915050565b6000610e63826111e3565b610e6d8185611228565b9350610e7d8185602086016112da565b610e86816114a6565b840191505092915050565b6000610e9e603483611228565b9150610ea9826114b7565b604082019050919050565b6000610ec1602783611228565b9150610ecc82611506565b604082019050919050565b6000610ee4602983611228565b9150610eef82611555565b604082019050919050565b6000610f0760008361120c565b9150610f12826115a4565b600082019050919050565b6000606083016000830151610f356000860182610d8c565b5060208301518482036020860152610f4d8282610e1f565b9150506040830151610f626040860182610f6d565b508091505092915050565b610f76816112c1565b82525050565b610f85816112c1565b82525050565b6000610f9682610efa565b9150819050919050565b60006020820190508181036000830152610fba8184610daa565b905092915050565b60006020820190508181036000830152610fdc8184610e58565b905092915050565b60006040820190508181036000830152610ffe8185610e58565b905061100d6020830184610d9b565b9392505050565b6000606082019050818103600083015261102e8186610e58565b905061103d6020830185610d9b565b818103604083015261104f8184610e58565b9050949350505050565b600060408201905081810360008301526110738185610e58565b90506110826020830184610f7c565b9392505050565b600060608201905081810360008301526110a38186610e58565b90506110b26020830185610f7c565b6110bf6040830184610d9b565b949350505050565b600060208201905081810360008301526110e081610e91565b9050919050565b6000602082019050818103600083015261110081610eb4565b9050919050565b6000602082019050818103600083015261112081610ed7565b9050919050565b600060208201905061113c6000830184610f7c565b92915050565b60006040820190506111576000830185610f7c565b81810360208301526111698184610e58565b90509392505050565b600061117c61118d565b9050611188828261133f565b919050565b6000604051905090565b600067ffffffffffffffff8211156111b2576111b1611477565b5b6111bb826114a6565b9050602081019050919050565b6000819050602082019050919050565b600081519050919050565b600081519050919050565b6000602082019050919050565b600082825260208201905092915050565b600081905092915050565b600082825260208201905092915050565b600082825260208201905092915050565b6000611244826112c1565b915061124f836112c1565b9250827fffffffffffffffffffffffffffffffffffffffffffffffffffffffffffffffff03821115611284576112836113ea565b5b828201905092915050565b600061129a826112a1565b9050919050565b600073ffffffffffffffffffffffffffffffffffffffff82169050919050565b6000819050919050565b82818337600083830152505050565b60005b838110156112f85780820151818401526020810190506112dd565b83811115611307576000848401525b50505050565b6000600282049050600182168061132557607f821691505b6020821081141561133957611338611448565b5b50919050565b611348826114a6565b810181811067ffffffffffffffff8211171561136757611366611477565b5b80604052505050565b600061137b826112c1565b91507fffffffffffffffffffffffffffffffffffffffffffffffffffffffffffffffff8214156113ae576113ad6113ea565b5b600182019050919050565b60006113c4826112c1565b91506113cf836112c1565b9250826113df576113de611419565b5b828206905092915050565b7f4e487b7100000000000000000000000000000000000000000000000000000000600052601160045260246000fd5b7f4e487b7100000000000000000000000000000000000000000000000000000000600052601260045260246000fd5b7f4e487b7100000000000000000000000000000000000000000000000000000000600052602260045260246000fd5b7f4e487b7100000000000000000000000000000000000000000000000000000000600052604160045260246000fd5b6000601f19601f8301169050919050565b7f547279696e6720746f207769746864726177206d6f7265206d6f6e657920746860008201527f616e2074686520636f6e7472616374206861732e000000000000000000000000602082015250565b7f4661696c656420746f207769746864726177206d6f6e65792066726f6d20636f60008201527f6e74726163742e00000000000000000000000000000000000000000000000000602082015250565b7f4d7573742077616974203330207365636f6e6473206265666f7265207761766960008201527f6e6720616761696e2e0000000000000000000000000000000000000000000000602082015250565b50565b6115b08161128f565b81146115bb57600080fd5b5056fea264697066735822122084f42896436eed59251c9e8941a133819f2365356c1511004cbe2c24ded7fb0e64736f6c6343000804003357656c636f6d6520746f206d7920617765736f6d65205761766520506f7274616c",
  "linkReferences": {},
  "deployedLinkReferences": {}
}