{
  "_format": "hh-sol-artifact-1",
  "contractName": "WavePortal",
  "sourceName": "contracts/WavePortal.sol",
  "abi": [
    {
      "inputs": [],
      "stateMutability": "payable",
      "type": "constructor"
    },
    {
      "anonymous": false,
      "inputs": [
        {
          "indexed": true,
          "internalType": "address",
          "name": "from",
          "type": "address"
        },
        {
          "indexed": false,
          "internalType": "uint256",
          "name": "timestamp",
          "type": "uint256"
        },
        {
          "indexed": false,
          "internalType": "string",
          "name": "message",
          "type": "string"
        }
      ],
      "name": "NewWave",
      "type": "event"
    },
    {
      "inputs": [],
      "name": "getAllWaves",
      "outputs": [
        {
          "components": [
            {
              "internalType": "address",
              "name": "waver",
              "type": "address"
            },
            {
              "internalType": "string",
              "name": "message",
              "type": "string"
            },
            {
              "internalType": "uint256",
              "name": "timestamp",
              "type": "uint256"
            }
          ],
          "internalType": "struct WavePortal.Wave[]",
          "name": "",
          "type": "tuple[]"
        }
      ],
      "stateMutability": "view",
      "type": "function"
    },
    {
      "inputs": [],
      "name": "getNumOfUniqueWaves",
      "outputs": [
        {
          "internalType": "uint256",
          "name": "",
          "type": "uint256"
        }
      ],
      "stateMutability": "view",
      "type": "function"
    },
    {
      "inputs": [],
      "name": "getTotalWaves",
      "outputs": [
        {
          "internalType": "uint256",
          "name": "",
          "type": "uint256"
        }
      ],
      "stateMutability": "view",
      "type": "function"
    },
    {
      "inputs": [
        {
          "internalType": "address",
          "name": "account",
          "type": "address"
        }
      ],
      "name": "getTotalWavesFromAccount",
      "outputs": [
        {
          "internalType": "uint256",
          "name": "",
          "type": "uint256"
        }
      ],
      "stateMutability": "view",
      "type": "function"
    },
    {
      "inputs": [
        {
          "internalType": "string",
          "name": "_message",
          "type": "string"
        }
      ],
      "name": "wave",
      "outputs": [],
      "stateMutability": "nonpayable",
      "type": "function"
    }
  ],
  "bytecode": "0x60806040526200003360405180606001604052806021815260200162001438602191396200003960201b620006db1760201c565b620001cd565b620000d98160405160240162000050919062000146565b6040516020818303038152906040527f41304fac000000000000000000000000000000000000000000000000000000007bffffffffffffffffffffffffffffffffffffffffffffffffffffffff19166020820180517bffffffffffffffffffffffffffffffffffffffffffffffffffffffff8381831617835250505050620000dc60201b60201c565b50565b60008151905060006a636f6e736f6c652e6c6f679050602083016000808483855afa5050505050565b600062000112826200016a565b6200011e818562000175565b93506200013081856020860162000186565b6200013b81620001bc565b840191505092915050565b6000602082019050818103600083015262000162818462000105565b905092915050565b600081519050919050565b600082825260208201905092915050565b60005b83811015620001a657808201518184015260208101905062000189565b83811115620001b6576000848401525b50505050565b6000601f19601f8301169050919050565b61125b80620001dd6000396000f3fe608060405234801561001057600080fd5b50600436106100575760003560e01c8063449d46c01461005c578063804eb94614610078578063816d82ee146100965780639a2cdc08146100c6578063bd43a908146100e4575b600080fd5b61007660048036038101906100719190610ac0565b610102565b005b61008061042c565b60405161008d9190610e3d565b60405180910390f35b6100b060048036038101906100ab9190610a97565b610477565b6040516100bd9190610e3d565b60405180910390f35b6100ce61053f565b6040516100db9190610e3d565b60405180910390f35b6100ec61058a565b6040516100f99190610d06565b60405180910390f35b60016000808282546101149190610f4f565b9250508190555061015b6040518060400160405280601581526020017f25732077617665642c206d6573736167653a20257300000000000000000000008152503383610774565b600360405180606001604052803373ffffffffffffffffffffffffffffffffffffffff16815260200183815260200142815250908060018154018082558091505060019003906000526020600020906003020160009091909190915060008201518160000160006101000a81548173ffffffffffffffffffffffffffffffffffffffff021916908373ffffffffffffffffffffffffffffffffffffffff160217905550602082015181600101908051906020019061021a929190610977565b506040820151816002015550506000600260003373ffffffffffffffffffffffffffffffffffffffff1673ffffffffffffffffffffffffffffffffffffffff168152602001908152602001600020541415610288576001600081548092919061028290611086565b91905055505b600260003373ffffffffffffffffffffffffffffffffffffffff1673ffffffffffffffffffffffffffffffffffffffff16815260200190815260200160002060008154809291906102d890611086565b91905055503373ffffffffffffffffffffffffffffffffffffffff167f5f7e16dc676677766a70e9c5628aa6c54ddb8b6e5188e2ae1e1f17f1ffbea7164283604051610325929190610e58565b60405180910390a26000655af3107a400090504781111561037b576040517f08c379a000000000000000000000000000000000000000000000000000000000815260040161037290610dfd565b60405180910390fd5b60003373ffffffffffffffffffffffffffffffffffffffff16826040516103a190610cf1565b60006040518083038185875af1925050503d80600081146103de576040519150601f19603f3d011682016040523d82523d6000602084013e6103e3565b606091505b5050905080610427576040517f08c379a000000000000000000000000000000000000000000000000000000000815260040161041e90610e1d565b60405180910390fd5b505050565b600061046f6040518060400160405280601e81526020017f5765206861766520256420746f74616c20756e69717565207761766573210000815250600154610813565b600154905090565b60006104f86040518060400160405280601f81526020017f5765206861766520256420746f74616c2077617665732066726f6d2025732100815250600260008573ffffffffffffffffffffffffffffffffffffffff1673ffffffffffffffffffffffffffffffffffffffff16815260200190815260200160002054846108af565b600260008373ffffffffffffffffffffffffffffffffffffffff1673ffffffffffffffffffffffffffffffffffffffff168152602001908152602001600020549050919050565b60006105826040518060400160405280601781526020017f5765206861766520256420746f74616c20776176657321000000000000000000815250600054610813565b600054905090565b60606003805480602002602001604051908101604052809291908181526020016000905b828210156106d257838290600052602060002090600302016040518060600160405290816000820160009054906101000a900473ffffffffffffffffffffffffffffffffffffffff1673ffffffffffffffffffffffffffffffffffffffff1673ffffffffffffffffffffffffffffffffffffffff16815260200160018201805461063790611023565b80601f016020809104026020016040519081016040528092919081815260200182805461066390611023565b80156106b05780601f10610685576101008083540402835291602001916106b0565b820191906000526020600020905b81548152906001019060200180831161069357829003601f168201915b50505050508152602001600282015481525050815260200190600101906105ae565b50505050905090565b610771816040516024016106ef9190610d28565b6040516020818303038152906040527f41304fac000000000000000000000000000000000000000000000000000000007bffffffffffffffffffffffffffffffffffffffffffffffffffffffff19166020820180517bffffffffffffffffffffffffffffffffffffffffffffffffffffffff838183161783525050505061094e565b50565b61080e83838360405160240161078c93929190610d4a565b6040516020818303038152906040527fe0e9ad4f000000000000000000000000000000000000000000000000000000007bffffffffffffffffffffffffffffffffffffffffffffffffffffffff19166020820180517bffffffffffffffffffffffffffffffffffffffffffffffffffffffff838183161783525050505061094e565b505050565b6108ab8282604051602401610829929190610d8f565b6040516020818303038152906040527f9710a9d0000000000000000000000000000000000000000000000000000000007bffffffffffffffffffffffffffffffffffffffffffffffffffffffff19166020820180517bffffffffffffffffffffffffffffffffffffffffffffffffffffffff838183161783525050505061094e565b5050565b6109498383836040516024016108c793929190610dbf565b6040516020818303038152906040527fe3849f79000000000000000000000000000000000000000000000000000000007bffffffffffffffffffffffffffffffffffffffffffffffffffffffff19166020820180517bffffffffffffffffffffffffffffffffffffffffffffffffffffffff838183161783525050505061094e565b505050565b60008151905060006a636f6e736f6c652e6c6f679050602083016000808483855afa5050505050565b82805461098390611023565b90600052602060002090601f0160209004810192826109a557600085556109ec565b82601f106109be57805160ff19168380011785556109ec565b828001600101855582156109ec579182015b828111156109eb5782518255916020019190600101906109d0565b5b5090506109f991906109fd565b5090565b5b80821115610a165760008160009055506001016109fe565b5090565b6000610a2d610a2884610ead565b610e88565b905082815260208101848484011115610a4557600080fd5b610a50848285610fe1565b509392505050565b600081359050610a678161120e565b92915050565b600082601f830112610a7e57600080fd5b8135610a8e848260208601610a1a565b91505092915050565b600060208284031215610aa957600080fd5b6000610ab784828501610a58565b91505092915050565b600060208284031215610ad257600080fd5b600082013567ffffffffffffffff811115610aec57600080fd5b610af884828501610a6d565b91505092915050565b6000610b0d8383610c83565b905092915050565b610b1e81610fa5565b82525050565b610b2d81610fa5565b82525050565b6000610b3e82610eee565b610b488185610f11565b935083602082028501610b5a85610ede565b8060005b85811015610b965784840389528151610b778582610b01565b9450610b8283610f04565b925060208a01995050600181019050610b5e565b50829750879550505050505092915050565b6000610bb382610ef9565b610bbd8185610f2d565b9350610bcd818560208601610ff0565b610bd68161115c565b840191505092915050565b6000610bec82610ef9565b610bf68185610f3e565b9350610c06818560208601610ff0565b610c0f8161115c565b840191505092915050565b6000610c27603483610f3e565b9150610c328261116d565b604082019050919050565b6000610c4a602783610f3e565b9150610c55826111bc565b604082019050919050565b6000610c6d600083610f22565b9150610c788261120b565b600082019050919050565b6000606083016000830151610c9b6000860182610b15565b5060208301518482036020860152610cb38282610ba8565b9150506040830151610cc86040860182610cd3565b508091505092915050565b610cdc81610fd7565b82525050565b610ceb81610fd7565b82525050565b6000610cfc82610c60565b9150819050919050565b60006020820190508181036000830152610d208184610b33565b905092915050565b60006020820190508181036000830152610d428184610be1565b905092915050565b60006060820190508181036000830152610d648186610be1565b9050610d736020830185610b24565b8181036040830152610d858184610be1565b9050949350505050565b60006040820190508181036000830152610da98185610be1565b9050610db86020830184610ce2565b9392505050565b60006060820190508181036000830152610dd98186610be1565b9050610de86020830185610ce2565b610df56040830184610b24565b949350505050565b60006020820190508181036000830152610e1681610c1a565b9050919050565b60006020820190508181036000830152610e3681610c3d565b9050919050565b6000602082019050610e526000830184610ce2565b92915050565b6000604082019050610e6d6000830185610ce2565b8181036020830152610e7f8184610be1565b90509392505050565b6000610e92610ea3565b9050610e9e8282611055565b919050565b6000604051905090565b600067ffffffffffffffff821115610ec857610ec761112d565b5b610ed18261115c565b9050602081019050919050565b6000819050602082019050919050565b600081519050919050565b600081519050919050565b6000602082019050919050565b600082825260208201905092915050565b600081905092915050565b600082825260208201905092915050565b600082825260208201905092915050565b6000610f5a82610fd7565b9150610f6583610fd7565b9250827fffffffffffffffffffffffffffffffffffffffffffffffffffffffffffffffff03821115610f9a57610f996110cf565b5b828201905092915050565b6000610fb082610fb7565b9050919050565b600073ffffffffffffffffffffffffffffffffffffffff82169050919050565b6000819050919050565b82818337600083830152505050565b60005b8381101561100e578082015181840152602081019050610ff3565b8381111561101d576000848401525b50505050565b6000600282049050600182168061103b57607f821691505b6020821081141561104f5761104e6110fe565b5b50919050565b61105e8261115c565b810181811067ffffffffffffffff8211171561107d5761107c61112d565b5b80604052505050565b600061109182610fd7565b91507fffffffffffffffffffffffffffffffffffffffffffffffffffffffffffffffff8214156110c4576110c36110cf565b5b600182019050919050565b7f4e487b7100000000000000000000000000000000000000000000000000000000600052601160045260246000fd5b7f4e487b7100000000000000000000000000000000000000000000000000000000600052602260045260246000fd5b7f4e487b7100000000000000000000000000000000000000000000000000000000600052604160045260246000fd5b6000601f19601f8301169050919050565b7f547279696e6720746f207769746864726177206d6f7265206d6f6e657920746860008201527f616e2074686520636f6e7472616374206861732e000000000000000000000000602082015250565b7f4661696c656420746f207769746864726177206d6f6e65792066726f6d20636f60008201527f6e74726163742e00000000000000000000000000000000000000000000000000602082015250565b50565b61121781610fa5565b811461122257600080fd5b5056fea26469706673582212208f7735cc3f67a5c02cb492fc60425d09a2c54e93f853f54536c2f3a8488ba7cd64736f6c6343000804003357656c636f6d6520746f206d7920617765736f6d65205761766520506f7274616c",
  "linkReferences": {},
  "deployedLinkReferences": {}
}