{
  "_format": "hh-sol-artifact-1",
  "contractName": "WavePortal",
  "sourceName": "contracts/WavePortal.sol",
  "abi": [
    {
      "inputs": [],
      "stateMutability": "nonpayable",
      "type": "constructor"
    },
    {
      "anonymous": false,
      "inputs": [
        {
          "indexed": true,
          "internalType": "address",
          "name": "from",
          "type": "address"
        },
        {
          "indexed": false,
          "internalType": "uint256",
          "name": "timestamp",
          "type": "uint256"
        },
        {
          "indexed": false,
          "internalType": "string",
          "name": "message",
          "type": "string"
        }
      ],
      "name": "NewWave",
      "type": "event"
    },
    {
      "inputs": [],
      "name": "getAllWaves",
      "outputs": [
        {
          "components": [
            {
              "internalType": "address",
              "name": "waver",
              "type": "address"
            },
            {
              "internalType": "string",
              "name": "message",
              "type": "string"
            },
            {
              "internalType": "uint256",
              "name": "timestamp",
              "type": "uint256"
            }
          ],
          "internalType": "struct WavePortal.Wave[]",
          "name": "",
          "type": "tuple[]"
        }
      ],
      "stateMutability": "view",
      "type": "function"
    },
    {
      "inputs": [],
      "name": "getNumOfUniqueWaves",
      "outputs": [
        {
          "internalType": "uint256",
          "name": "",
          "type": "uint256"
        }
      ],
      "stateMutability": "view",
      "type": "function"
    },
    {
      "inputs": [],
      "name": "getTotalWaves",
      "outputs": [
        {
          "internalType": "uint256",
          "name": "",
          "type": "uint256"
        }
      ],
      "stateMutability": "view",
      "type": "function"
    },
    {
      "inputs": [
        {
          "internalType": "address",
          "name": "account",
          "type": "address"
        }
      ],
      "name": "getTotalWavesFromAccount",
      "outputs": [
        {
          "internalType": "uint256",
          "name": "",
          "type": "uint256"
        }
      ],
      "stateMutability": "view",
      "type": "function"
    },
    {
      "inputs": [
        {
          "internalType": "string",
          "name": "_message",
          "type": "string"
        }
      ],
      "name": "wave",
      "outputs": [],
      "stateMutability": "nonpayable",
      "type": "function"
    }
  ],
  "bytecode": "0x60806040523480156200001157600080fd5b5062000041604051806060016040528060218152602001620011e0602191396200004760201b620005df1760201c565b620001db565b620000e7816040516024016200005e919062000154565b6040516020818303038152906040527f41304fac000000000000000000000000000000000000000000000000000000007bffffffffffffffffffffffffffffffffffffffffffffffffffffffff19166020820180517bffffffffffffffffffffffffffffffffffffffffffffffffffffffff8381831617835250505050620000ea60201b60201c565b50565b60008151905060006a636f6e736f6c652e6c6f679050602083016000808483855afa5050505050565b6000620001208262000178565b6200012c818562000183565b93506200013e81856020860162000194565b6200014981620001ca565b840191505092915050565b6000602082019050818103600083015262000170818462000113565b905092915050565b600081519050919050565b600082825260208201905092915050565b60005b83811015620001b457808201518184015260208101905062000197565b83811115620001c4576000848401525b50505050565b6000601f19601f8301169050919050565b610ff580620001eb6000396000f3fe608060405234801561001057600080fd5b50600436106100575760003560e01c8063449d46c01461005c578063804eb94614610078578063816d82ee146100965780639a2cdc08146100c6578063bd43a908146100e4575b600080fd5b610076600480360381019061007191906109c4565b610102565b005b610080610330565b60405161008d9190610c83565b60405180910390f35b6100b060048036038101906100ab919061099b565b61037b565b6040516100bd9190610c83565b60405180910390f35b6100ce610443565b6040516100db9190610c83565b60405180910390f35b6100ec61048e565b6040516100f99190610b8c565b60405180910390f35b60016000808282546101149190610d8a565b9250508190555061015b6040518060400160405280601581526020017f25732077617665642c206d6573736167653a20257300000000000000000000008152503383610678565b600360405180606001604052803373ffffffffffffffffffffffffffffffffffffffff16815260200183815260200142815250908060018154018082558091505060019003906000526020600020906003020160009091909190915060008201518160000160006101000a81548173ffffffffffffffffffffffffffffffffffffffff021916908373ffffffffffffffffffffffffffffffffffffffff160217905550602082015181600101908051906020019061021a92919061087b565b506040820151816002015550506000600260003373ffffffffffffffffffffffffffffffffffffffff1673ffffffffffffffffffffffffffffffffffffffff168152602001908152602001600020541415610288576001600081548092919061028290610ec1565b91905055505b600260003373ffffffffffffffffffffffffffffffffffffffff1673ffffffffffffffffffffffffffffffffffffffff16815260200190815260200160002060008154809291906102d890610ec1565b91905055503373ffffffffffffffffffffffffffffffffffffffff167f5f7e16dc676677766a70e9c5628aa6c54ddb8b6e5188e2ae1e1f17f1ffbea7164283604051610325929190610c9e565b60405180910390a250565b60006103736040518060400160405280601e81526020017f5765206861766520256420746f74616c20756e69717565207761766573210000815250600154610717565b600154905090565b60006103fc6040518060400160405280601f81526020017f5765206861766520256420746f74616c2077617665732066726f6d2025732100815250600260008573ffffffffffffffffffffffffffffffffffffffff1673ffffffffffffffffffffffffffffffffffffffff16815260200190815260200160002054846107b3565b600260008373ffffffffffffffffffffffffffffffffffffffff1673ffffffffffffffffffffffffffffffffffffffff168152602001908152602001600020549050919050565b60006104866040518060400160405280601781526020017f5765206861766520256420746f74616c20776176657321000000000000000000815250600054610717565b600054905090565b60606003805480602002602001604051908101604052809291908181526020016000905b828210156105d657838290600052602060002090600302016040518060600160405290816000820160009054906101000a900473ffffffffffffffffffffffffffffffffffffffff1673ffffffffffffffffffffffffffffffffffffffff1673ffffffffffffffffffffffffffffffffffffffff16815260200160018201805461053b90610e5e565b80601f016020809104026020016040519081016040528092919081815260200182805461056790610e5e565b80156105b45780601f10610589576101008083540402835291602001916105b4565b820191906000526020600020905b81548152906001019060200180831161059757829003601f168201915b50505050508152602001600282015481525050815260200190600101906104b2565b50505050905090565b610675816040516024016105f39190610bae565b6040516020818303038152906040527f41304fac000000000000000000000000000000000000000000000000000000007bffffffffffffffffffffffffffffffffffffffffffffffffffffffff19166020820180517bffffffffffffffffffffffffffffffffffffffffffffffffffffffff8381831617835250505050610852565b50565b61071283838360405160240161069093929190610bd0565b6040516020818303038152906040527fe0e9ad4f000000000000000000000000000000000000000000000000000000007bffffffffffffffffffffffffffffffffffffffffffffffffffffffff19166020820180517bffffffffffffffffffffffffffffffffffffffffffffffffffffffff8381831617835250505050610852565b505050565b6107af828260405160240161072d929190610c15565b6040516020818303038152906040527f9710a9d0000000000000000000000000000000000000000000000000000000007bffffffffffffffffffffffffffffffffffffffffffffffffffffffff19166020820180517bffffffffffffffffffffffffffffffffffffffffffffffffffffffff8381831617835250505050610852565b5050565b61084d8383836040516024016107cb93929190610c45565b6040516020818303038152906040527fe3849f79000000000000000000000000000000000000000000000000000000007bffffffffffffffffffffffffffffffffffffffffffffffffffffffff19166020820180517bffffffffffffffffffffffffffffffffffffffffffffffffffffffff8381831617835250505050610852565b505050565b60008151905060006a636f6e736f6c652e6c6f679050602083016000808483855afa5050505050565b82805461088790610e5e565b90600052602060002090601f0160209004810192826108a957600085556108f0565b82601f106108c257805160ff19168380011785556108f0565b828001600101855582156108f0579182015b828111156108ef5782518255916020019190600101906108d4565b5b5090506108fd9190610901565b5090565b5b8082111561091a576000816000905550600101610902565b5090565b600061093161092c84610cf3565b610cce565b90508281526020810184848401111561094957600080fd5b610954848285610e1c565b509392505050565b60008135905061096b81610fa8565b92915050565b600082601f83011261098257600080fd5b813561099284826020860161091e565b91505092915050565b6000602082840312156109ad57600080fd5b60006109bb8482850161095c565b91505092915050565b6000602082840312156109d657600080fd5b600082013567ffffffffffffffff8111156109f057600080fd5b6109fc84828501610971565b91505092915050565b6000610a118383610b1e565b905092915050565b610a2281610de0565b82525050565b610a3181610de0565b82525050565b6000610a4282610d34565b610a4c8185610d57565b935083602082028501610a5e85610d24565b8060005b85811015610a9a5784840389528151610a7b8582610a05565b9450610a8683610d4a565b925060208a01995050600181019050610a62565b50829750879550505050505092915050565b6000610ab782610d3f565b610ac18185610d68565b9350610ad1818560208601610e2b565b610ada81610f97565b840191505092915050565b6000610af082610d3f565b610afa8185610d79565b9350610b0a818560208601610e2b565b610b1381610f97565b840191505092915050565b6000606083016000830151610b366000860182610a19565b5060208301518482036020860152610b4e8282610aac565b9150506040830151610b636040860182610b6e565b508091505092915050565b610b7781610e12565b82525050565b610b8681610e12565b82525050565b60006020820190508181036000830152610ba68184610a37565b905092915050565b60006020820190508181036000830152610bc88184610ae5565b905092915050565b60006060820190508181036000830152610bea8186610ae5565b9050610bf96020830185610a28565b8181036040830152610c0b8184610ae5565b9050949350505050565b60006040820190508181036000830152610c2f8185610ae5565b9050610c3e6020830184610b7d565b9392505050565b60006060820190508181036000830152610c5f8186610ae5565b9050610c6e6020830185610b7d565b610c7b6040830184610a28565b949350505050565b6000602082019050610c986000830184610b7d565b92915050565b6000604082019050610cb36000830185610b7d565b8181036020830152610cc58184610ae5565b90509392505050565b6000610cd8610ce9565b9050610ce48282610e90565b919050565b6000604051905090565b600067ffffffffffffffff821115610d0e57610d0d610f68565b5b610d1782610f97565b9050602081019050919050565b6000819050602082019050919050565b600081519050919050565b600081519050919050565b6000602082019050919050565b600082825260208201905092915050565b600082825260208201905092915050565b600082825260208201905092915050565b6000610d9582610e12565b9150610da083610e12565b9250827fffffffffffffffffffffffffffffffffffffffffffffffffffffffffffffffff03821115610dd557610dd4610f0a565b5b828201905092915050565b6000610deb82610df2565b9050919050565b600073ffffffffffffffffffffffffffffffffffffffff82169050919050565b6000819050919050565b82818337600083830152505050565b60005b83811015610e49578082015181840152602081019050610e2e565b83811115610e58576000848401525b50505050565b60006002820490506001821680610e7657607f821691505b60208210811415610e8a57610e89610f39565b5b50919050565b610e9982610f97565b810181811067ffffffffffffffff82111715610eb857610eb7610f68565b5b80604052505050565b6000610ecc82610e12565b91507fffffffffffffffffffffffffffffffffffffffffffffffffffffffffffffffff821415610eff57610efe610f0a565b5b600182019050919050565b7f4e487b7100000000000000000000000000000000000000000000000000000000600052601160045260246000fd5b7f4e487b7100000000000000000000000000000000000000000000000000000000600052602260045260246000fd5b7f4e487b7100000000000000000000000000000000000000000000000000000000600052604160045260246000fd5b6000601f19601f8301169050919050565b610fb181610de0565b8114610fbc57600080fd5b5056fea2646970667358221220e347b58f7bde18edee3098eff5876ea1f03a07aca125ac80a5f822be160d40a964736f6c6343000804003357656c636f6d6520746f206d7920617765736f6d65205761766520506f7274616c",
  "linkReferences": {},
  "deployedLinkReferences": {}
}