{
  "_format": "hh-sol-artifact-1",
  "contractName": "WavePortal",
  "sourceName": "contracts/WavePortal.sol",
  "abi": [
    {
      "inputs": [],
      "stateMutability": "nonpayable",
      "type": "constructor"
    },
    {
      "inputs": [],
      "name": "getNumOfUniqueWaves",
      "outputs": [
        {
          "internalType": "uint256",
          "name": "",
          "type": "uint256"
        }
      ],
      "stateMutability": "view",
      "type": "function"
    },
    {
      "inputs": [],
      "name": "getTotalWaves",
      "outputs": [
        {
          "internalType": "uint256",
          "name": "",
          "type": "uint256"
        }
      ],
      "stateMutability": "view",
      "type": "function"
    },
    {
      "inputs": [
        {
          "internalType": "address",
          "name": "account",
          "type": "address"
        }
      ],
      "name": "getTotalWavesFromAccount",
      "outputs": [
        {
          "internalType": "uint256",
          "name": "",
          "type": "uint256"
        }
      ],
      "stateMutability": "view",
      "type": "function"
    },
    {
      "inputs": [],
      "name": "wave",
      "outputs": [],
      "stateMutability": "nonpayable",
      "type": "function"
    }
  ],
  "bytecode": "0x608060405234801561001057600080fd5b506100596040518060400160405280601981526020017f57656c636f6d6520746f206d79205761766520506f7274616c0000000000000081525061005e60201b6103351760201c565b6101e1565b6100fa81604051602401610072919061015f565b6040516020818303038152906040527f41304fac000000000000000000000000000000000000000000000000000000007bffffffffffffffffffffffffffffffffffffffffffffffffffffffff19166020820180517bffffffffffffffffffffffffffffffffffffffffffffffffffffffff83818316178352505050506100fd60201b60201c565b50565b60008151905060006a636f6e736f6c652e6c6f679050602083016000808483855afa5050505050565b600061013182610181565b61013b818561018c565b935061014b81856020860161019d565b610154816101d0565b840191505092915050565b600060208201905081810360008301526101798184610126565b905092915050565b600081519050919050565b600082825260208201905092915050565b60005b838110156101bb5780820151818401526020810190506101a0565b838111156101ca576000848401525b50505050565b6000601f19601f8301169050919050565b6108f5806101f06000396000f3fe608060405234801561001057600080fd5b506004361061004c5760003560e01c80636fe15b4414610051578063804eb9461461005b578063816d82ee146100795780639a2cdc08146100a9575b600080fd5b6100596100c7565b005b6100636101d7565b6040516100709190610723565b60405180910390f35b610093600480360381019061008e91906105e3565b610222565b6040516100a09190610723565b60405180910390f35b6100b16102ea565b6040516100be9190610723565b60405180910390f35b60016000808282546100d9919061075a565b9250508190555061011f6040518060400160405280600d81526020017f2573206861732077617665642100000000000000000000000000000000000000815250336103ce565b6000600260003373ffffffffffffffffffffffffffffffffffffffff1673ffffffffffffffffffffffffffffffffffffffff168152602001908152602001600020541415610180576001600081548092919061017a9061081f565b91905055505b600260003373ffffffffffffffffffffffffffffffffffffffff1673ffffffffffffffffffffffffffffffffffffffff16815260200190815260200160002060008154809291906101d09061081f565b9190505550565b600061021a6040518060400160405280601e81526020017f5765206861766520256420746f74616c20756e6971756520776176657321000081525060015461046a565b600154905090565b60006102a36040518060400160405280601f81526020017f5765206861766520256420746f74616c2077617665732066726f6d2025732100815250600260008573ffffffffffffffffffffffffffffffffffffffff1673ffffffffffffffffffffffffffffffffffffffff1681526020019081526020016000205484610506565b600260008373ffffffffffffffffffffffffffffffffffffffff1673ffffffffffffffffffffffffffffffffffffffff168152602001908152602001600020549050919050565b600061032d6040518060400160405280601781526020017f5765206861766520256420746f74616c2077617665732100000000000000000081525060005461046a565b600054905090565b6103cb816040516024016103499190610663565b6040516020818303038152906040527f41304fac000000000000000000000000000000000000000000000000000000007bffffffffffffffffffffffffffffffffffffffffffffffffffffffff19166020820180517bffffffffffffffffffffffffffffffffffffffffffffffffffffffff83818316178352505050506105a5565b50565b61046682826040516024016103e4929190610685565b6040516020818303038152906040527f319af333000000000000000000000000000000000000000000000000000000007bffffffffffffffffffffffffffffffffffffffffffffffffffffffff19166020820180517bffffffffffffffffffffffffffffffffffffffffffffffffffffffff83818316178352505050506105a5565b5050565b61050282826040516024016104809291906106b5565b6040516020818303038152906040527f9710a9d0000000000000000000000000000000000000000000000000000000007bffffffffffffffffffffffffffffffffffffffffffffffffffffffff19166020820180517bffffffffffffffffffffffffffffffffffffffffffffffffffffffff83818316178352505050506105a5565b5050565b6105a083838360405160240161051e939291906106e5565b6040516020818303038152906040527fe3849f79000000000000000000000000000000000000000000000000000000007bffffffffffffffffffffffffffffffffffffffffffffffffffffffff19166020820180517bffffffffffffffffffffffffffffffffffffffffffffffffffffffff83818316178352505050506105a5565b505050565b60008151905060006a636f6e736f6c652e6c6f679050602083016000808483855afa5050505050565b6000813590506105dd816108a8565b92915050565b6000602082840312156105f557600080fd5b6000610603848285016105ce565b91505092915050565b610615816107b0565b82525050565b60006106268261073e565b6106308185610749565b93506106408185602086016107ec565b61064981610897565b840191505092915050565b61065d816107e2565b82525050565b6000602082019050818103600083015261067d818461061b565b905092915050565b6000604082019050818103600083015261069f818561061b565b90506106ae602083018461060c565b9392505050565b600060408201905081810360008301526106cf818561061b565b90506106de6020830184610654565b9392505050565b600060608201905081810360008301526106ff818661061b565b905061070e6020830185610654565b61071b604083018461060c565b949350505050565b60006020820190506107386000830184610654565b92915050565b600081519050919050565b600082825260208201905092915050565b6000610765826107e2565b9150610770836107e2565b9250827fffffffffffffffffffffffffffffffffffffffffffffffffffffffffffffffff038211156107a5576107a4610868565b5b828201905092915050565b60006107bb826107c2565b9050919050565b600073ffffffffffffffffffffffffffffffffffffffff82169050919050565b6000819050919050565b60005b8381101561080a5780820151818401526020810190506107ef565b83811115610819576000848401525b50505050565b600061082a826107e2565b91507fffffffffffffffffffffffffffffffffffffffffffffffffffffffffffffffff82141561085d5761085c610868565b5b600182019050919050565b7f4e487b7100000000000000000000000000000000000000000000000000000000600052601160045260246000fd5b6000601f19601f8301169050919050565b6108b1816107b0565b81146108bc57600080fd5b5056fea264697066735822122086693ced2248ef7eec1563e07967320fee02ef2dd386fe7c6d78b16f2fc183b364736f6c63430008040033",
  "linkReferences": {},
  "deployedLinkReferences": {}
}